{
  "_format": "hh-sol-artifact-1",
  "contractName": "NusicMetadataFactory",
  "sourceName": "contracts/NusicMetadataFactory.sol",
  "abi": [
    {
      "anonymous": false,
      "inputs": [
        {
          "indexed": true,
          "internalType": "address",
          "name": "previousOwner",
          "type": "address"
        },
        {
          "indexed": true,
          "internalType": "address",
          "name": "newOwner",
          "type": "address"
        }
      ],
      "name": "OwnershipTransferred",
      "type": "event"
    },
    {
      "anonymous": false,
      "inputs": [
        {
          "indexed": false,
          "internalType": "string",
          "name": "_artistName",
          "type": "string"
        },
        {
          "indexed": false,
          "internalType": "string",
          "name": "_artistId",
          "type": "string"
        },
        {
          "indexed": false,
          "internalType": "address",
          "name": "metadataContract",
          "type": "address"
        }
      ],
      "name": "SetupMetadata",
      "type": "event"
    },
    {
      "inputs": [
        {
          "internalType": "address",
          "name": "userAddress",
          "type": "address"
        }
      ],
      "name": "getMetadataContract",
      "outputs": [
        {
          "internalType": "address",
          "name": "",
          "type": "address"
        }
      ],
      "stateMutability": "view",
      "type": "function"
    },
    {
      "inputs": [],
      "name": "owner",
      "outputs": [
        {
          "internalType": "address",
          "name": "",
          "type": "address"
        }
      ],
      "stateMutability": "view",
      "type": "function"
    },
    {
      "inputs": [],
      "name": "renounceOwnership",
      "outputs": [],
      "stateMutability": "nonpayable",
      "type": "function"
    },
    {
      "inputs": [
        {
          "internalType": "string",
          "name": "_artistName",
          "type": "string"
        },
        {
          "internalType": "string",
          "name": "_artistId",
          "type": "string"
        }
      ],
      "name": "setupMetadataForArtist",
      "outputs": [],
      "stateMutability": "nonpayable",
      "type": "function"
    },
    {
      "inputs": [
        {
          "internalType": "address",
          "name": "newOwner",
          "type": "address"
        }
      ],
      "name": "transferOwnership",
      "outputs": [],
      "stateMutability": "nonpayable",
      "type": "function"
    },
    {
      "inputs": [
        {
          "internalType": "address",
          "name": "",
          "type": "address"
        }
      ],
      "name": "usersMetadataContract",
      "outputs": [
        {
          "internalType": "address",
          "name": "",
          "type": "address"
        }
      ],
      "stateMutability": "view",
      "type": "function"
    }
  ],
  "bytecode": "0x608060405234801561001057600080fd5b5061001a33610023565b60018055610073565b600080546001600160a01b038381166001600160a01b0319831681178455604051919092169283917f8be0079c531659141344cd1fd0a4f28419497f9722a3daafe3b4186f6b6457e09190a35050565b6115d3806100826000396000f3fe608060405234801561001057600080fd5b50600436106100725760003560e01c8063adf1fa5911610050578063adf1fa59146100d7578063f2fde38b14610103578063ff6201a41461011657600080fd5b806307b4924e14610077578063715018a6146100bc5780638da5cb5b146100c6575b600080fd5b6100a061008536600461034a565b6002602052600090815260409020546001600160a01b031681565b6040516001600160a01b03909116815260200160405180910390f35b6100c4610129565b005b6000546001600160a01b03166100a0565b6100a06100e536600461034a565b6001600160a01b039081166000908152600260205260409020541690565b6100c461011136600461034a565b61013d565b6100c4610124366004610436565b6101d2565b610131610285565b61013b60006102df565b565b610145610285565b6001600160a01b0381166101c65760405162461bcd60e51b815260206004820152602660248201527f4f776e61626c653a206e6577206f776e657220697320746865207a65726f206160448201527f646472657373000000000000000000000000000000000000000000000000000060648201526084015b60405180910390fd5b6101cf816102df565b50565b60008282336040516101e39061033c565b6101ef939291906104e0565b604051809103906000f08015801561020b573d6000803e3d6000fd5b503360009081526002602052604090819020805473ffffffffffffffffffffffffffffffffffffffff19166001600160a01b038416179055519091507f5e382d95d92ca2dcf445a3243bca907d48ab6373978cd675385c9d7f6493388690610278908590859085906104e0565b60405180910390a1505050565b6000546001600160a01b0316331461013b5760405162461bcd60e51b815260206004820181905260248201527f4f776e61626c653a2063616c6c6572206973206e6f7420746865206f776e657260448201526064016101bd565b600080546001600160a01b0383811673ffffffffffffffffffffffffffffffffffffffff19831681178455604051919092169283917f8be0079c531659141344cd1fd0a4f28419497f9722a3daafe3b4186f6b6457e09190a35050565b6110a7806200052083390190565b60006020828403121561035c57600080fd5b81356001600160a01b038116811461037357600080fd5b9392505050565b7f4e487b7100000000000000000000000000000000000000000000000000000000600052604160045260246000fd5b600082601f8301126103ba57600080fd5b813567ffffffffffffffff808211156103d5576103d561037a565b604051601f8301601f19908116603f011681019082821181831017156103fd576103fd61037a565b8160405283815286602085880101111561041657600080fd5b836020870160208301376000602085830101528094505050505092915050565b6000806040838503121561044957600080fd5b823567ffffffffffffffff8082111561046157600080fd5b61046d868387016103a9565b9350602085013591508082111561048357600080fd5b50610490858286016103a9565b9150509250929050565b6000815180845260005b818110156104c0576020818501810151868301820152016104a4565b506000602082860101526020601f19601f83011685010191505092915050565b6060815260006104f3606083018661049a565b8281036020840152610505818661049a565b9150506001600160a01b038316604083015294935050505056fe60806040523480156200001157600080fd5b50604051620010a7380380620010a783398101604081905262000034916200019f565b6200003f336200008a565b600180556002620000518482620002bb565b506003620000608382620002bb565b50600480546001600160a01b0319166001600160a01b039290921691909117905550620003879050565b600080546001600160a01b038381166001600160a01b0319831681178455604051919092169283917f8be0079c531659141344cd1fd0a4f28419497f9722a3daafe3b4186f6b6457e09190a35050565b634e487b7160e01b600052604160045260246000fd5b600082601f8301126200010257600080fd5b81516001600160401b03808211156200011f576200011f620000da565b604051601f8301601f19908116603f011681019082821181831017156200014a576200014a620000da565b816040528381526020925086838588010111156200016757600080fd5b600091505b838210156200018b57858201830151818301840152908201906200016c565b600093810190920192909252949350505050565b600080600060608486031215620001b557600080fd5b83516001600160401b0380821115620001cd57600080fd5b620001db87838801620000f0565b94506020860151915080821115620001f257600080fd5b506200020186828701620000f0565b604086015190935090506001600160a01b03811681146200022157600080fd5b809150509250925092565b600181811c908216806200024157607f821691505b6020821081036200026257634e487b7160e01b600052602260045260246000fd5b50919050565b601f821115620002b657600081815260208120601f850160051c81016020861015620002915750805b601f850160051c820191505b81811015620002b2578281556001016200029d565b5050505b505050565b81516001600160401b03811115620002d757620002d7620000da565b620002ef81620002e884546200022c565b8462000268565b602080601f8311600181146200032757600084156200030e5750858301515b600019600386901b1c1916600185901b178555620002b2565b600085815260208120601f198616915b82811015620003585788860151825594840194600190910190840162000337565b5085821015620003775787850151600019600388901b60f8161c191681555b5050505050600190811b01905550565b610d1080620003976000396000f3fe608060405234801561001057600080fd5b50600436106100885760003560e01c8063a574cea41161005b578063a574cea4146100dd578063d9a19635146100fd578063df77299514610112578063f2fde38b1461018457600080fd5b806353c8388e1461008d5780636a6997f8146100a2578063715018a6146100b55780638da5cb5b146100bd575b600080fd5b6100a061009b3660046108cc565b610197565b005b6100a06100b036600461092f565b6102cc565b6100a0610403565b6000546040516001600160a01b0390911681526020015b60405180910390f35b6100f06100eb366004610986565b610417565b6040516100d49190610a82565b610105610580565b6040516100d49190610a9c565b610154610120366004610986565b600660205260009081526040902080546001820154600283015460039093015491926001600160a01b039182169291169084565b6040516100d494939291909384526001600160a01b03928316602085015291166040830152606082015260800190565b6100a0610192366004610afe565b6106e2565b6004546001600160a01b031633146102045760405162461bcd60e51b815260206004820152602560248201527f43616c6c6572206e6565647320746f20626520417274697374206f6620436f6e6044820152641d1c9858dd60da1b60648201526084015b60405180910390fd5b600082815260066020526040902060028101546001600160a01b031661026c5760405162461bcd60e51b815260206004820152601260248201527f4d65746164617461206e6f7420666f756e64000000000000000000000000000060448201526064016101fb565b600481018054600181018255600091825260209091200161028d8382610ba2565b507f5c7d06d982dcbaecddafd940a137b8df6bf74088dc42b086479917a34988bde283836040516102bf929190610c62565b60405180910390a1505050565b6004546001600160a01b031633146103345760405162461bcd60e51b815260206004820152602560248201527f43616c6c6572206e6565647320746f20626520417274697374206f6620436f6e6044820152641d1c9858dd60da1b60648201526084016101fb565b60055460008181526006602090815260408220928355600180840180543373ffffffffffffffffffffffffffffffffffffffff19918216179091556002850180549091166001600160a01b03881617905560038401859055600484018054918201815583529120016103a68582610ba2565b507fe854cdf1adc80fd99a485ca5b1f4b56b5f5667e67883b5a3f66e8a01d0162dc2600554338585886040516103e0959493929190610c83565b60405180910390a1600580549060006103f883610cc6565b919050555050505050565b61040b610772565b61041560006107cc565b565b61045b6040518060a001604052806000815260200160006001600160a01b0316815260200160006001600160a01b0316815260200160008152602001606081525090565b6000828152600660209081526040808320815160a0810183528154815260018201546001600160a01b03908116828601526002830154168184015260038201546060820152600482018054845181870281018701909552808552919592946080870194939192919084015b828210156105725783829060005260206000200180546104e590610b19565b80601f016020809104026020016040519081016040528092919081815260200182805461051190610b19565b801561055e5780601f106105335761010080835404028352916020019161055e565b820191906000526020600020905b81548152906001019060200180831161054157829003601f168201915b5050505050815260200190600101906104c6565b505050915250909392505050565b606060005b6005548110156106de576000818152600660209081526040808320815160a0810183528154815260018201546001600160a01b03908116828601526002830154168184015260038201546060820152600482018054845181870281018701909552808552919592946080870194939192919084015b828210156106a657838290600052602060002001805461061990610b19565b80601f016020809104026020016040519081016040528092919081815260200182805461064590610b19565b80156106925780601f1061066757610100808354040283529160200191610692565b820191906000526020600020905b81548152906001019060200180831161067557829003601f168201915b5050505050815260200190600101906105fa565b50505050815250508282815181106106c0576106c0610ced565b602002602001018190525080806106d690610cc6565b915050610585565b5090565b6106ea610772565b6001600160a01b0381166107665760405162461bcd60e51b815260206004820152602660248201527f4f776e61626c653a206e6577206f776e657220697320746865207a65726f206160448201527f646472657373000000000000000000000000000000000000000000000000000060648201526084016101fb565b61076f816107cc565b50565b6000546001600160a01b031633146104155760405162461bcd60e51b815260206004820181905260248201527f4f776e61626c653a2063616c6c6572206973206e6f7420746865206f776e657260448201526064016101fb565b600080546001600160a01b0383811673ffffffffffffffffffffffffffffffffffffffff19831681178455604051919092169283917f8be0079c531659141344cd1fd0a4f28419497f9722a3daafe3b4186f6b6457e09190a35050565b634e487b7160e01b600052604160045260246000fd5b600082601f83011261085057600080fd5b813567ffffffffffffffff8082111561086b5761086b610829565b604051601f8301601f19908116603f0116810190828211818310171561089357610893610829565b816040528381528660208588010111156108ac57600080fd5b836020870160208301376000602085830101528094505050505092915050565b600080604083850312156108df57600080fd5b82359150602083013567ffffffffffffffff8111156108fd57600080fd5b6109098582860161083f565b9150509250929050565b80356001600160a01b038116811461092a57600080fd5b919050565b60008060006060848603121561094457600080fd5b833567ffffffffffffffff81111561095b57600080fd5b6109678682870161083f565b93505061097660208501610913565b9150604084013590509250925092565b60006020828403121561099857600080fd5b5035919050565b6000815180845260005b818110156109c5576020818501810151868301820152016109a9565b506000602082860101526020601f19601f83011685010191505092915050565b600060a08301825184526020808401516001600160a01b0380821683880152806040870151166040880152505060608401516060860152608084015160a0608087015282815180855260c08801915060c08160051b8901019450838301925060005b81811015610a755760bf19898703018352610a6386855161099f565b95509284019291840191600101610a47565b5093979650505050505050565b602081526000610a9560208301846109e5565b9392505050565b6000602080830181845280855180835260408601915060408160051b870101925083870160005b82811015610af157603f19888603018452610adf8583516109e5565b94509285019290850190600101610ac3565b5092979650505050505050565b600060208284031215610b1057600080fd5b610a9582610913565b600181811c90821680610b2d57607f821691505b602082108103610b4d57634e487b7160e01b600052602260045260246000fd5b50919050565b601f821115610b9d57600081815260208120601f850160051c81016020861015610b7a5750805b601f850160051c820191505b81811015610b9957828155600101610b86565b5050505b505050565b815167ffffffffffffffff811115610bbc57610bbc610829565b610bd081610bca8454610b19565b84610b53565b602080601f831160018114610c055760008415610bed5750858301515b600019600386901b1c1916600185901b178555610b99565b600085815260208120601f198616915b82811015610c3457888601518255948401946001909101908401610c15565b5085821015610c525787850151600019600388901b60f8161c191681555b5050505050600190811b01905550565b828152604060208201526000610c7b604083018461099f565b949350505050565b85815260006001600160a01b03808716602084015280861660408401525083606083015260a06080830152610cbb60a083018461099f565b979650505050505050565b600060018201610ce657634e487b7160e01b600052601160045260246000fd5b5060010190565b634e487b7160e01b600052603260045260246000fdfea164736f6c6343000811000aa164736f6c6343000811000a",
  "linkReferences": {},
  "deployedLinkReferences": {}
}